{
  "_format": "hh-sol-artifact-1",
  "contractName": "EtherCast",
  "sourceName": "contracts/EtherCast.sol",
  "abi": [
    {
      "anonymous": false,
      "inputs": [
        {
          "indexed": true,
          "internalType": "uint256",
          "name": "id",
          "type": "uint256"
        },
        {
          "indexed": true,
          "internalType": "address",
          "name": "from",
          "type": "address"
        },
        {
          "indexed": true,
          "internalType": "address",
          "name": "to",
          "type": "address"
        },
        {
          "indexed": false,
          "internalType": "bytes32",
          "name": "contentHash",
          "type": "bytes32"
        },
        {
          "indexed": false,
          "internalType": "string",
          "name": "tag",
          "type": "string"
        },
        {
          "indexed": false,
          "internalType": "uint256",
          "name": "timestamp",
          "type": "uint256"
        }
      ],
      "name": "AffirmationCast",
      "type": "event"
    },
    {
      "inputs": [
        {
          "internalType": "address",
          "name": "to",
          "type": "address"
        },
        {
          "internalType": "bytes32",
          "name": "contentHash",
          "type": "bytes32"
        },
        {
          "internalType": "string",
          "name": "tag",
          "type": "string"
        }
      ],
      "name": "castAffirmation",
      "outputs": [
        {
          "internalType": "uint256",
          "name": "id",
          "type": "uint256"
        }
      ],
      "stateMutability": "nonpayable",
      "type": "function"
    },
    {
      "inputs": [
        {
          "internalType": "uint256",
          "name": "id",
          "type": "uint256"
        }
      ],
      "name": "getAffirmation",
      "outputs": [
        {
          "components": [
            {
              "internalType": "address",
              "name": "from",
              "type": "address"
            },
            {
              "internalType": "address",
              "name": "to",
              "type": "address"
            },
            {
              "internalType": "bytes32",
              "name": "contentHash",
              "type": "bytes32"
            },
            {
              "internalType": "string",
              "name": "tag",
              "type": "string"
            },
            {
              "internalType": "uint256",
              "name": "timestamp",
              "type": "uint256"
            }
          ],
          "internalType": "struct EtherCast.Affirmation",
          "name": "",
          "type": "tuple"
        }
      ],
      "stateMutability": "view",
      "type": "function"
    },
    {
      "inputs": [],
      "name": "totalAffirmations",
      "outputs": [
        {
          "internalType": "uint256",
          "name": "",
          "type": "uint256"
        }
      ],
      "stateMutability": "view",
      "type": "function"
    }
  ],
  "bytecode": "0x608060405234801561001057600080fd5b50610674806100206000396000f3fe608060405234801561001057600080fd5b50600436106100415760003560e01c80631f14ce9314610046578063345f3da31461005d5780636c3718941461007d575b600080fd5b6000545b6040519081526020015b60405180910390f35b61007061006b366004610350565b610090565b6040516100549190610369565b61004a61008b3660046103f4565b610205565b6040805160a08101825260008082526020820181905291810182905260608082015260808101829052905482106101055760405162461bcd60e51b8152602060048201526015602482015274115d1a195c90d85cdd0e881a5b9d985b1a59081a59605a1b604482015260640160405180910390fd5b6000828154811061011857610118610489565b60009182526020918290206040805160a081018252600590930290910180546001600160a01b039081168452600182015416938301939093526002830154908201526003820180549192916060840191906101729061049f565b80601f016020809104026020016040519081016040528092919081815260200182805461019e9061049f565b80156101eb5780601f106101c0576101008083540402835291602001916101eb565b820191906000526020600020905b8154815290600101906020018083116101ce57829003601f168201915b505050505081526020016004820154815250509050919050565b60008080549050905060006040518060a00160405280336001600160a01b03168152602001876001600160a01b0316815260200186815260200185858080601f01602080910402602001604051908101604052809392919081815260200183838082843760009201829052509385525050426020938401525083546001808201865594825290829020835160059092020180546001600160a01b03199081166001600160a01b039384161782559284015194810180549093169490911693909317905560408101516002830155606081015190919060038201906102e9908261053e565b50608082015181600401555050846001600160a01b0316336001600160a01b0316827f04659fb78d85adbaa07c9b70c92e4223a8a5fb92e27f427a3a975ac101d134508787874260405161034094939291906105fe565b60405180910390a4949350505050565b60006020828403121561036257600080fd5b5035919050565b6000602080835260018060a01b03808551168285015280828601511660408501525060408401516060840152606084015160a0608085015280518060c086015260005b818110156103c85782810184015186820160e0015283016103ac565b50600060e08287010152608086015160a086015260e0601f19601f830116860101935050505092915050565b6000806000806060858703121561040a57600080fd5b84356001600160a01b038116811461042157600080fd5b935060208501359250604085013567ffffffffffffffff8082111561044557600080fd5b818701915087601f83011261045957600080fd5b81358181111561046857600080fd5b88602082850101111561047a57600080fd5b95989497505060200194505050565b634e487b7160e01b600052603260045260246000fd5b600181811c908216806104b357607f821691505b6020821081036104d357634e487b7160e01b600052602260045260246000fd5b50919050565b634e487b7160e01b600052604160045260246000fd5b601f82111561053957600081815260208120601f850160051c810160208610156105165750805b601f850160051c820191505b8181101561053557828155600101610522565b5050505b505050565b815167ffffffffffffffff811115610558576105586104d9565b61056c81610566845461049f565b846104ef565b602080601f8311600181146105a157600084156105895750858301515b600019600386901b1c1916600185901b178555610535565b600085815260208120601f198616915b828110156105d0578886015182559484019460019091019084016105b1565b50858210156105ee5787850151600019600388901b60f8161c191681555b5050505050600190811b01905550565b848152606060208201528260608201528284608083013760006080848301015260006080601f19601f86011683010190508260408301529594505050505056fea2646970667358221220a0a15c4d3f1ad7502097acfa47cb2d834e3cf58c2d8741c9aa33b1c4ada0596d64736f6c63430008140033",
  "linkReferences": {},
  "deployedLinkReferences": {}
}